S01700004763634170706C69636174696F6E312E737265635B
S11300000C942A000C9447000C9447000C9447006D
S11300100C9447000C9447000C9447000C94470040
S11300200C9447000C9447000C9447000C94470030
S11300300C9447000C945E080C9487080C944700B9
S11300400C9447000C9447000C9447000C94470010
S11300500C94470011241FBECFE5D8E0DEBFCDBF0E
S113006011E0A0E6B0E0E0E3F3E102C005900D92F8
S1130070AC32B107D9F723E0ACE2B1E001C01D9284
S1130080A731B207E1F70E9452080C9496090C9428
S1130090000095ED9A95F1F70000882314F4DA9A9C
S11300A001C0DA9886FF02C0DB9A01C0DB9885FFA5
S11300B002C0DC9A01C0DC9884FF02C0DD9A01C052
S11300C0DD98DE9ADE9883FF02C0DA9A01C0DA98DE
S11300D082FF02C0DB9A01C0DB9881FF02C0DC9A78
S11300E001C0DC9880FF02C0DD9A01C0DD98DE9A71
S11300F0DE980895DF9881E00E9449008FE39FE134
S11301000197F1F700C000000895DF9880680E940D
S11301104900089590E4699F800D11240E94850090
S11301200895D79AD69AD29AD39AD49AD59ADF9820
S1130130DE988FE59AEE0197F1F700C00000DD9A92
S1130140DC9ADB98DA98DE9ADE988FE19EE40197D8
S1130150F1F700C00000DE9ADE988FE193E001978A
S1130160F1F700C00000DE9ADE988FE193E001977A
S1130170F1F700C00000DD98DC9ADB98DA98DE9A8B
S1130180DE9888E20E9449008CE00E9449000E94A7
S11301907A0086E00E9449000895CF93DF93EC0132
S11301A0DF9A8881882331F021960E944900899141
S11301B08111FBCFDF91CF910895DF9A0E9449000E
S11301C00895EF92FF920F931F93CF93DF93CDB7D0
S11301D0DEB7C456D1090FB6F894DEBF0FBECDBF4B
S11301E0BC01CE0101967C01FC0100E010E02AE094
S11301F030E001C08C01CB01B9010E94320990E3C7
S1130200980F9193C80101966115710599F711230F
S113021064F00C0F1D1F0E5F1F4FF80182918F01B8
S11302200E94DD000E151F05C1F7CC59DF4F0FB634
S1130230F894DEBF0FBECDBFDF91CF911F910F9118
S1130240FF90EF90089592E0961B692F0E948A0018
S11302500895CF92DF92EF92FF920F931F93CF9363
S1130260DF93CDB7DEB7C456D1090FB6F894DEBF1D
S11302700FBECDBF6C01CE0101967C0100E010E001
S113028001C089010E942009892BE1F30E94BB0867
S1130290F70181937F0198012F5F3F4F803289F7E7
S11302A0E1E0F0E0EC0FFD1FE00FF11F1082BE0152
S11302B06F5F7F4FC6010E945A09CC59DF4F0FB6BA
S11302C0F894DEBF0FBECDBFDF91CF911F910F9188
S11302D0FF90EF90DF90CF9008950F931F93CF93EB
S11302E0DF9300D000D01F92CDB7DEB78E010F5F31
S11302F01F4FC8010E942901D8010D900020E9F781
S1130300F801AD014150510980E090E011C09C0119
S1130310220F331F880F991F880F991F880F991F69
S1130320820F931F219130E020533109820F931FD4
S1130330E417F50761F70F900F900F900F900F904F
S1130340DF91CF911F910F9108950E947A008EE65C
S113035090E00E94CD00089580B383FB222720F90A
S113036030E0C90184990A96859B02C08C599F4F3D
S11303700895CF93DF93EC010E947A0062E080E05D
S11303800E948A008FEB90E00E94CD0062E080E042
S11303900E948A008AE790E00E94CD0061E082E03A
S11303A00E948A008CE790E00E94CD0062E082E027
S11303B00E948A00219729F48AE890E00E94CD00E7
S11303C004C086E990E00E94CD00DF91CF910895AA
S11303D0CF93C0E061E08C2F0E948A008FEB90E005
S11303E00E94CD00CF5FC031A9F7CF9108950F933C
S11303F01F93CF93DF938C010E94E80161E080E0BA
S11304000E948A008CE1809FE001819FD00D11241D
S1130410CE01825D9E4F0E94CD0061E088E00E9483
S11304208A00C45DDE4F8E899F890E94E10061E0ED
S11304308EE00E948A00888D998D0E94E100DF91F0
S1130440CF911F910F9108952FEF35EA4EE021507F
S113045030404040E1F700C000000E947A0082EA88
S113046090E00E94CD0061E086E00E948A0082EB69
S113047090E00E94CD000E94AC010097E1F32FEFC1
S113048036E741E0215030404040E1F700C0000031
S113049020916200309163008217930751F08FEF2F
S11304A095EA2EE0815090402040E1F700C0000022
S11304B0E2CF0895EF92FF920F931F93CF93DF93B0
S11304C0EC010E947A00CE010E94CD0061E082E03E
S11304D00E948A0086EB90E00E94CD0061E08CE0EF
S11304E00E948A008BEB90E00E94CD002FEF85EAFA
S11304F09EE0215080409040E1F700C00000C1E040
S1130500D0E001E010E0E12CF12C0E94AC01892B39
S1130510E1F32FEF86E791E0215080409040E1F72E
S113052000C000000E94AC01C130D10509F5209142
S11305306600309167008217930739F020916800B4
S11305403091690082179307B1F561E082E00E945F
S11305508A008FEB90E00E94CD0061E08BE00E9466
S11305608A008AE790E00E94CD00CE2DDF2D2AC0BC
S1130570209709F520916600309167008217930750
S113058039F020916800309169008217930799F43B
S113059061E08BE00E948A008FEB90E00E94CD0026
S11305A061E082E00E948A008AE790E00E94CD0028
S11305B0C02FD12F07C020916200309163008217B1
S11305C0930751F08FEF95EA2EE081509040204040
S11305D0E1F700C0000099CFCE01DF91CF911F91C8
S11305E00F91FF90EF9008950F931F93CF93DF9394
S11305F02FEF83ED90E3215080409040E1F700C05D
S1130600000002C00E94BB080E942009892BD1F778
S11306100E942D098EEB90E00E9411090E94BB08F4
S11306208D33E1F70E946D019093D1028093D00243
S1130630181619061CF5CEE2D1E000E010E00E9485
S11306406D01FE01329791838083CE010E942901BE
S11306500E946D019D8B8C8B0E946D019F8B8E8BF4
S11306600E946D01998F888F0F5F1F4F6C96809148
S1130670D0029091D102081719070CF3DF91CF91A2
S11306801F910F9108950F931F93CF93DF93809140
S1130690D0029091D1021816190604F5CCE2D1E0EB
S11306A000E010E081EC90E00E94110988819981BA
S11306B00E94E70880E20E94D608888D998D0E94E6
S11306C0E70880E20E94D6080F5F1F4F6C96809166
S11306D0D0029091D1020817190724F3DF91CF912A
S11306E01F910F9108951F93CF93DF930E94A5014B
S11306F00E94F4022FEF85EA9EE021508040904052
S1130700E1F700C000000E947A0085E890E00E94B2
S1130710CD0060E070E088E090E00E9423018CED61
S113072090E00E94CD0060E070E08EE090E00E94D6
S113073023018BEB90E00E94CD0061E070E080E04B
S113074090E00E9423018EE291E00E94CD0061E0DE
S113075070E088E090E00E942301CCE2D1E08E8931
S11307609F890E94E10061E070E08EE090E00E94C9
S11307702301888D998D0E94E100C0E0D0E01CE146
S11307800E94AC01892BE1F32FEF86E791E0215021
S113079080409040E1F700C000000E94AC0120912D
S11307A06C0030916D008217930769F4209731F43F
S11307B0C091D002D091D102219701C02197CE01DE
S11307C00E94F701DDC020916A0030916B0082170E
S11307D0930781F48091D0029091D10201978C17F4
S11307E09D0711F0219602C0C0E0D0E0CE010E9426
S11307F0F701C6C020916600309167008217930705
S1130800D1F41C9FF0011D9FF00D1124E45DFE4FF7
S1130810808D918D009709F4B3C01C9FF0011D9F3A
S1130820F00D1124E45DFE4F0197918F808FCE016E
S11308300E94F701A5C020916800309169008217D9
S1130840930781F41C9FF0011D9FF00D1124E45DBA
S1130850FE4F808D918D0196918F808FCE010E94E5
S1130860F7018EC0209164003091650082179307D0
S113087069F582EE90E00E945A02892B49F01C9F90
S1130880F0011D9FF00D1124E45DFE4F118E108EBA
S11308900E947A0085E890E00E94CD0060E070E05C
S11308A088E090E00E9423018CED90E00E94CD004E
S11308B060E070E08EE090E00E9423018BEB90E01A
S11308C00E94CD00CE010E94F7015AC0209162001F
S11308D0309163008217930749F583EF90E00E94FB
S11308E05A02892B29F00E94430381E090E054C00E
S11308F00E947A0085E890E00E94CD0060E070E0FC
S113090088E090E00E9423018CED90E00E94CD00ED
S113091060E070E08EE090E00E9423018BEB90E0B9
S11309200E94CD00CE010E94F7012AC020916000F0
S1130930309161008217930719F584E091E00E94D9
S11309405A02892B39F50E947A0085E890E00E94CA
S1130950CD0060E070E088E090E00E9423018CED1F
S113096090E00E94CD0060E070E08EE090E00E9494
S113097023018BEB90E00E94CD00CE010E94F70191
S11309802FEF85EA9EE0215080409040E1F700C0BF
S11309900000F6CE80E090E0DF91CF911F910895A2
S11309A0CF92DF92EF92FF920F931F93CF93DF9337
S11309B0CDB7DEB7C85CD1090FB6F894DEBF0FBE61
S11309C0CDBF0E94A5010E94F4022FEF35EA8EE00C
S11309D0215030408040E1F700C000000E947A00BE
S11309E04091D0025091D1021416150604F5E4E4A6
S11309F0F1E080E090E000E010E020813181121607
S1130A0013066CF4D801AA0FBB1F21E030E02C0FB1
S1130A103D1FA20FB31F8D939C930F5F1F4F019631
S1130A207C96841795074CF30115110579F585E13A
S1130A3091E00E94CD0061E070E086E090E00E94C9
S1130A40230182EB90E00E94CD000E94AC01892B2F
S1130A50E1F33FEF86E791E0315080409040E1F7C9
S1130A6000C000000E94AC0120916200309163003C
S1130A708217930709F4B7C0EFEFF5EA2EE0E150CF
S1130A80F0402040E1F700C00000DFCF85E890E0AF
S1130A900E94CD0060E070E088E090E00E942301B5
S1130AA08CED90E00E94CD0060E070E08EE090E07C
S1130AB00E9423018BEB90E00E94CD0061E070E086
S1130AC080E090E00E94230189819A812CE1289F93
S1130AD07001299FF00C1124C701825D9E4F0E9472
S1130AE0CD0061E070E088E090E00E942301C7013E
S1130AF0845D9E4F7C01FC01868997890E94E100F8
S1130B0061E070E08EE090E00E942301F701808DA7
S1130B10918D0E94E100E12CF12C01501109C12CAE
S1130B20D12C0E94AC01892BE1F3FFEF26E731E0E1
S1130B30F15020403040E1F700C000000E94AC01B9
S1130B4020916C0030916D0082179307B1F4E11489
S1130B50F10411F4780103C081E0E81AF108F70107
S1130B60EE0FFF1F21E030E02C0F3D1FE20FF31FBB
S1130B70808191810E94F7012CC020916A003091FC
S1130B806B0082179307B9F4E016F10621F03FEFEA
S1130B90E31AF30A02C0EC2CFD2CF701EE0FFF1F41
S1130BA081E090E08C0F9D1FE80FF91F80819181F7
S1130BB00E94F7010EC020916200309163008217F9
S1130BC0930789F0209160003091610082179307A8
S1130BD051F09FEFE5EAFEE09150E040F040E1F78C
S1130BE000C000009ECFC853DF4F0FB6F894DEBF9D
S1130BF00FBECDBFDF91CF911F910F91FF90EF906A
S1130C00DF90CF9008951F93CF93DF930E94A501A7
S1130C100E94F4022FEF85EA9EE02150804090402C
S1130C20E1F700C000000E947A0085E890E00E948D
S1130C30CD0060E070E088E090E00E9423018CED3C
S1130C4090E00E94CD0060E070E08EE090E00E94B1
S1130C5023018BEB90E00E94CD0061E070E080E026
S1130C6090E00E9423018EE291E00E94CD0061E0B9
S1130C7070E088E090E00E942301CCE2D1E08E890C
S1130C809F890E94E10061E070E08EE090E00E94A4
S1130C902301888D998D0E94E100C0E0D0E01CE121
S1130CA00E94AC01892BE1F32FEF86E791E02150FC
S1130CB080409040E1F700C000000E94AC01209108
S1130CC06C0030916D008217930769F4209731F41A
S1130CD0C091D002D091D102219701C02197CE01B9
S1130CE00E94F70115C120916A0030916B008217B0
S1130CF0930781F48091D0029091D10201978C17CF
S1130D009D0711F0219602C0C0E0D0E0CE010E9400
S1130D10F701FEC0209166003091670082179307A7
S1130D2009F045C01C9FF0011D9FF00D1124E45DE6
S1130D30FE4F828D938D892BD1F41C9FF0011D9F52
S1130D40F00D1124E45DFE4F808D918D009709F420
S1130D50DFC01C9FF0011D9FF00D1124E45DFE4FC8
S1130D600197918F808FCE010E94F701D1C00E941C
S1130D7024020E947A0085E890E00E94CD0060E0A1
S1130D8070E088E090E00E9423018CED90E00E94E6
S1130D90CD0060E070E08EE090E00E9423018BEBD8
S1130DA090E00E94CD00CE010E94F701B1C02091D5
S1130DB06800309169008217930781F41C9FF00149
S1130DC01D9FF00D1124E45DFE4F808D918D0196E1
S1130DD0918F808FCE010E94F7019AC02091640008
S1130DE03091650082179307D9F51C9FF0011D9F70
S1130DF0F00D1124E45DFE4F828D938D892B81F4D7
S1130E0082EE90E00E945A02892B61F01C9FF0014F
S1130E101D9FF00D1124E45DFE4F118E108E02C053
S1130E200E9424020E947A0085E890E00E94CD008E
S1130E3060E070E088E090E00E9423018CED90E097
S1130E400E94CD0060E070E08EE090E00E942301FB
S1130E508BEB90E00E94CD00CE010E94F70158C0B8
S1130E6020916200309163008217930739F583EF74
S1130E7090E00E945A02892B19F00E94430352C049
S1130E800E947A0085E890E00E94CD0060E070E066
S1130E9088E090E00E9423018CED90E00E94CD0058
S1130EA060E070E08EE090E00E9423018BEB90E024
S1130EB00E94CD00CE010E94F7012AC0209160005B
S1130EC0309161008217930719F584E091E00E9444
S1130ED05A02892B39F50E947A0085E890E00E9435
S1130EE0CD0060E070E088E090E00E9423018CED8A
S1130EF090E00E94CD0060E070E08EE090E00E94FF
S1130F0023018BEB90E00E94CD00CE010E94F701FB
S1130F102FEF85EA9EE0215080409040E1F700C029
S1130F200000BECEDF91CF911F9108952FEF85EA87
S1130F309EE0215080409040E1F700C000000E94F4
S1130F407A001092D1021092D00280E090E00E94C8
S1130F50B901E12CF12CC0E0D0E000E010E0CC2499
S1130F60C394D12C0E94AC01892BE1F32FEF86E7C7
S1130F7091E0215080409040E1F700C000000E94C1
S1130F80AC01209731F520916C0030916D008217EF
S1130F90930741F020916A0030916B008217930708
S1130FA009F070C0602F712F802F912F0E942301B0
S1130FB08FEB90E00E94CD006C2D7D2D802F912F22
S1130FC00E9423018AE790E00E94CD00CC2DDD2D04
S1130FD04FC0C130D10509F05DC020916C00309143
S1130FE06D008217930739F020916A0030916B00ED
S1130FF082179307B9F46C2D7D2D802F912F0E94B9
S113100023018FEB90E00E94CD00602F712F802F81
S1131010912F0E9423018AE790E00E94CD00C02F07
S1131020D12F26C02091620030916300821793076C
S1131030F9F4CD2BB1F4E114F10459F40E947303D3
S11310403C2D2D2D019711F0302F212FE32EF22E60
S113105002C00E940306C7010E94B901C02FD12F0C
S113106007C00E94D004C7010E94B901C02FD12F2C
S11310709FEF25EA8EE0915020408040E1F700C0C8
S1131080000070CF209162003091630082179307B3
S113109079F7D1CF209162003091630082179307D2
S11310A039F7DFCF789487E690E00E94AC088B98FC
S11310B08C988D980E9491000E9496071F920F921F
S11310C00FB60F9211242F938F939F93EF93FF9357
S11310D08BB12CB18871E091D402EF5FEF719091E4
S11310E0D302E91739F0E093D402F0E0E952FD4F5E
S11310F0208301C082E08093D202FF91EF919F91FF
S11311008F912F910F900FBE0F901F9018951F92E3
S11311100F920FB60F9211248F939F93EF93FF9327
S11311209091D6028091D502981761F0E091D50292
S1131130EF5FEF71E093D502F0E0E950FD4F80815D
S11311408CB901C05598FF91EF919F918F910F90A9
S11311500FBE0F901F9018951092D6021092D502D0
S11311601092D4021092D30290BD89B988E98AB949
S113117086E880BD08959091D4028091D302981797
S113118091F0E091D302EF5FEF71E093D302F0E0CE
S1131190E952FD4F20818091D20290E0982F882758
S11311A0820F911D089580E091E008952091D60268
S11311B02F5F2F719091D5022917E1F3E22FF0E010
S11311C0E950FD4F80832093D602559A08950F93DA
S11311D01F93CF93DF93CDB7DEB72F970FB6F89455
S11311E0DEBF0FBECDBF4AE0BE016F5F7F4F0E94DE
S11311F061098981882351F08E010E5F1F4F0E947F
S1131200D608F80181918F018111F9CF2F960FB67D
S1131210F894DEBF0FBECDBFDF91CF911F910F9128
S11312200895CF93DF93EC018881882331F02196D0
S11312300E94D60889918111FBCFDF91CF91089547
S11312408091D4022091D30290E04F96821B9109A1
S11312506FE170E00E94320908958091D302809377
S1131260D402089597FB072E16F4009407D077FD57
S113127009D00E94460907FC05D03EF4909581955B
S11312809F4F0895709561957F4F0895AA1BBB1BCE
S113129051E107C0AA1FBB1FA617B70710F0A61B72
S11312A0B70B881F991F5A95A9F780959095BC0193
S11312B0CD010895FB01DC0101900D920020E1F7BE
S11312C00895BB274A3031F4992322F4BDE2909566
S11312D081959F4F0C946D09BB27FB015527AA27C5
S11312E0880F991FAA1FA41710F0A41B83955051AF
S11312F0B9F7A05DAA3308F0A95DA193009779F727
S1131300B111B1931192CB010C948609DC01FC015B
S1131310672F71917723E1F7329704C07C916D9325
S113132070836291AE17BF07C8F30895F894FFCF96
S11313306F006E00650064000B000A000100506C31
S1131340656173652077616974003E0053656C655F
S11313506374656420466F6F64004368616E6765FB
S113136020466F6F640053656C65637420466F6F2D
S113137064002043616E6E6F742043616E63656C1C
S113138020003E4F6B003E596573004E6F005B209A
S1131390005D200043686F77005468756B706100CE
S11313A053616D6F736100536F75700050726963A0
S11313B0650053657420746865206E6F20746F2017
S11313C0303F005361766520746865206368616E00
S11313D06765730044697363617264204368616E76
S11313E06765733F004E6F20466F6F6473204F72C2
S10F13F064657265640068656C6C6F00D5
S9030000FC
